:1000000000800020BD010000D12E0000952E0000D0
:10001000952E0000952E0000952E0000952E0000D4
:10002000952E0000952E0000952E0000D12E000088
:10003000D12E0000952E0000D12E0000852E00004C
:10004000D12E0000D12E0000D12E0000D12E0000B4
:10005000D12E0000D12E0000D12E0000D12E0000A4
:10006000D12E0000D12E0000D12E0000D12E000094
:10007000D12E0000D12E0000D12E0000D12E000084
:10008000D12E0000D12E0000D12E0000D12E000074
:10009000D12E0000D12E0000D12E0000D12E000064
:1000A000D12E0000D12E0000D12E0000D12E000054
:1000B000D12E0000D12E0000D12E0000D12E000044
:1000C000D12E0000D12E0000D12E0000D12E000034
:1000D000D12E0000D12E0000D12E0000D12E000024
:1000E000D12E0000D12E0000D12E0000D12E000014
:1000F000D12E0000A9470000D12E00000D4F0000B6
:10010000D12E000089540000D12E0000D12E000015
:10011000D12E0000D12E0000D12E0000D12E0000E3
:10012000D12E0000D12E0000D12E0000D12E0000D3
:10013000D12E0000D12E0000D12E0000D12E0000C3
:10014000D12E0000D12E0000D12E0000D12E0000B3
:10015000D12E0000D12E0000D12E0000D12E0000A3
:10016000D12E000019340000D12E0000D12E000045
:10017000D12E0000D12E0000D12E0000D12E000083
:10018000D12E0000D12E0000D12E0000D12E000073
:10019000D12E0000D12E0000D12E0000D12E000063
:1001A000D12E0000D12E0000D12E0000D12E000053
:1001B000D12E0000D12E0000D12E0000574B4CF262
:1001C000205210B51A804DF628121A8000BF00BFC9
:1001D00002F082FE524B4FF010621A60514A9A6050
:1001E000514ADA60A3F53043203B1A6812F480725A
:1001F00004D14E490A604FF4A8521A604C4B1A7849
:10020000110703D51A7842F008021A70494B4A4C7C
:100210004A482A221A704A4A00239918A14203D256
:10022000195899500433F8E7464B474900228B424E
:1002300002D243F8042BFAE74448454900235A58B0
:100240001A500433B3F5DE7FF9D1424B424A802184
:1002500003F8011B9342FBD1404B3C4A1A60404BD0
:100260008A221A70A3F5805324225A70A0221A7091
:100270009A799207FCD59A79D406FCD4394A9379B5
:1002800003F00C03082B374BF9D103221A714022DB
:100290005A719A799006FCD5324A9179314B4906C8
:1002A000FBD5314A314911600221516020221A7078
:1002B0009A7902F00C020C2AFAD12D4B2D4A1A60C1
:1002C0002D4B2E4A1A6000225A60072243F8042C54
:1002D0002B4AC3F80C2D62B602F05EFF134B1B686D
:1002E000DA0705D5274802F02BFE274B274A1A606C
:1002F000274B1B785B0609D5234C244A236893427D
:1003000004D1204802F01CFE0023236006F0BAFA54
:1003100002F0E8FD03F056FEFEE700BF0E200540A8
:1003200030800440823F04000100002B14D00340C1
:1003300002D0074000E00740B492FF1F20B3000046
:100340006087FF1FB892FF1F109BFF1F0082FF1FD7
:100350000000000000E400E05FE400E008ED00E0E1
:100360000050064000400640448004400000030165
:1003700004800440C010050014E000E0FF76010096
:100380000000202043EFB3581CE00340A5C3945A5B
:1003900000F00740FFFFFFFFFFFFFFFFFFFFFFFF32
:1003A000FFFFFFFFFFFFFFFFFFFFFFFFFFFFFFFF5D
:1003B000FFFFFFFFFFFFFFFFFFFFFFFFFFFFFFFF4D
:1003C000FFFFFFFFFFFFFFFFFFFFFFFFFFFFFFFF3D
:1003D000FFFFFFFFFFFFFFFFFFFFFFFFFFFFFFFF2D
:1003E000FFFFFFFFFFFFFFFFFFFFFFFFFFFFFFFF1D
:1003F000FFFFFFFFFFFFFFFFFFFFFFFFFFFFFFFF0D
:10040000FFFFFFFFFFFFFFFFFFFFFFFFDEF9FFFF23
:1004100010B5054C237833B9044B13B10448AFF33E
:1004200000800123237010BDB892FF1F0000000060
:1004300018B3000008B5064B1BB106480649AFF3D8
:1004400000800648036813B1054B03B1984708BD07
:100450000000000018B30000BC92FF1FB492FF1F01
:100460000000000010B50446064B188880B206F064
:1004700055F8054906F0A6F805F060FCC4E900014E
:1004800010BD00BFF894FF1FF880773B10B50446FD
:10049000064B988880B206F041F8054906F092F8BC
:1004A00005F04CFCC4E9000110BD00BFF894FF1F2B
:1004B000F880773BFFFFFFFFF8B50646204B1F890A
:1004C000BFB2D0E90045204629460022002305F0AE
:1004D000FBFE38BB2046294615A3D3E9002305F0CF
:1004E00011FF18B112A1D1E9000101E0204629460F
:1004F000C6E9000110A3D3E9002305F073FC05F061
:1005000033FF80B2874238BF384680B20C4B9880A8
:1005100006F004F80B4906F055F805F00FFCC6E9A3
:100520000001F8BD00220023C6E900230020ECE70B
:100530000000000000F06E40000000209B8C704026
:10054000F894FF1FF880773B10B50446064B1889D6
:1005500080B205F0E3FF054906F034F805F0EEFB44
:10056000C4E9000110BD00BFF894FF1FF880773B7D
:10057000F8B50646224B9F88BFB2D0E90045204619
:1005800029460022002305F09FFE58B9204629463F
:1005900017A3D3E9002305F0B5FE30B114A1D1E9CA
:1005A000000104E00020002101E020462946C6E9C0
:1005B000000111A3D3E9002305F014FC05F0D4FEDB
:1005C00080B2874204D84FF6FF77B842B8BF0746DB
:1005D000B8B20B4B188105F0A1FF0A4905F0F2FFF4
:1005E00005F0ACFBC6E90001F8BD00BFAFF3008029
:1005F0000000000000F06E40000000209B8C704066
:10060000F894FF1FF880773B10B50446064B188C12
:1006100080B205F083FF054905F0D4FF05F08EFB9D
:10062000C4E9000110BD00BFF894FF1FF880773BBC
:1006300070B50646D0E90045204629460022002331
:1006400005F042FE48B9204629460022054B05F038
:1006500059FE20B10024034D01E000240025C6E925
:10066000004570BD000014400368092B05DD4EF6FF
:1006700060229342A8BF134600E00A23036070473C
:10068000064B9B8D9BB2092B05DD4EF660229342F3
:10069000A8BF134600E00A2303607047F894FF1FC9
:1006A00010B50446064B988C80B205F037FF05491B
:1006B00005F088FF05F042FBC4E9000110BD00BF52
:1006C000F894FF1FF880773B70B50646D0E90045E7
:1006D000204629460022002305F0F6FD48B92046B1
:1006E00029460022054B05F00DFE20B10024034DE4
:1006F00001E000240025C6E9004570BD000014405B
:1007000008B5436F0BB12430984708BD08B5C36FD7
:100710000BB12830984708BD4068704710B50446B3
:1007200003E02368DB692046984723681B6820465E
:1007300098470028F5DC10BD10B504462B39252953
:100740005DD8DFE801F0135C275C5C5C5C5C5C5CA2
:100750005C5C5C5C5C5C5C5C5C5C5C5C5C5C5C5CD9
:100760005C5C5C545C5C5C5C5C5C5C3B90F860205A
:1007700090F86130B2FBF3F103FB1123DBB2C06DE3
:10078000616A50F823301944616223689B682046EF
:10079000984710BD90F8602090F86130B2FBF3F1FB
:1007A00003FB1123DBB2C06D616A50F82330C91A14
:1007B000616223689B682046984710BD90F86030BE
:1007C0000133DBB280F8603090F86120B3FBF2F1C6
:1007D00002FB1133DBB2416EC95C90F868301944FA
:1007E000006AC9B294F8692001F0C0FC10BD03682A
:1007F0005B689847606810B103681B68984710BD34
:1008000010B504462B39252967D8DFE801F01366B7
:100810002C666666666666666666666666666666B2
:1008200066666666666666666666665E6666666670
:100830006666664590F8682090F86930B2FBF3F17F
:1008400003FB1123DBB2416E01EBC303D0E90A01C4
:10085000D3E9002305F014F9C4E90A0123689B6871
:100860002046984710BD90F8682090F86930B2FB98
:10087000F3F103FB1123DBB2416E01EBC303D0E9BB
:100880000A01D3E9002305F0F9F8C4E90A01236855
:100890009B682046984710BD90F868300133DBB262
:1008A00080F8683090F86920B3FBF2F102FB113355
:1008B000DBB2C16EC95C90F870301944006AC9B2ED
:1008C00094F8712001F052FC10BD03685B689847F2
:1008D000606810B103681B68984710BDF0B585B01B
:1008E0000446037D002B27D0C3680BB303685B6805
:1008F000124A1268019201999847C8B1E368984773
:1009000016E0E86903685B683A68029202999847C2
:1009100018B1E86903689B6898470435013EF0D137
:10092000064B1B6803930399204601F0EFFB03E09D
:1009300025460226014FE4E705B0F0BDFC97FF1FF6
:1009400010B50446036F0BB124309847206A94F821
:10095000681094F8692001F009FC206A04F14A014A
:10096000626A03F0DBFA94F8602094F86130B2FB1D
:10097000F3F103FB1123DBB2616EC95C94F86830BC
:100980001944206AC9B294F8692001F0EFFB10BD48
:1009900010B50446836F0BB128309847206A94F84D
:1009A000701094F8712001F0E1FB206A04F152010B
:1009B000D4E90A2303F0B2FA94F8682094F8693075
:1009C000B2FBF3F103FB1123DBB2E16EC95C94F8D7
:1009D00070301944206AC9B294F8712001F0C6FB46
:1009E00010BD00BF38B504460D46082003F0F2FAEA
:1009F000002343600560A3681BB1E3685860E060B2
:100A000001E0A060E0606368013363600023237647
:100A1000012038BD38B504460D4643681BB903684C
:100A20009B68984738BD082003F0D4FA0023036080
:100A30004360A26842600560A06062680132626043
:100A40002376012038BD00BF70B504464368002BF3
:100A500012DD012B0CDD80684668056803F0BEFAE4
:100A6000A6606368013B636000232376284670BD5F
:100A700003689B69984770BD002070BD70B504463F
:100A8000C36E0BB124309847206A00210A4601F05A
:100A90006DFB266A04F12805284606F0CBFC0246C9
:100AA00033685B68304629469847206A0021012256
:100AB00001F05CFB266A04F13905284606F0BAFC11
:100AC000024633685B6830462946984723689B682E
:100AD0002046984770BD00BF70B50446436F0BB108
:100AE00028309847206A00210A4601F03FFB266A19
:100AF00004F13005284606F09DFC024633685B6829
:100B0000304629469847206A0021012201F02EFB39
:100B1000266A04F14105284606F08CFC024633683B
:100B20005B6830462946984723689B68204698476B
:100B300070BD00BF014B4360704700BF011001381A
:100B400070B40C0A4268464B1B78002B28D072B652
:100B5000434B1B7813F0010F07D0424B1E68424DE8
:100B60002D683540414E35601D603D4B1B7813F0BC
:100B7000020F07D03E4B1E683B4D6D6835403B4E23
:100B800075601D60364B1B7813F0040F07D0394B8E
:100B90001E68354DAD683540344EB5601D6062B697
:100BA000354BDB68934256D0334B344D1D60DA60D1
:100BB00042F080421A61324A1A600378314A52F890
:100BC0003330012283F800212B4B4FF00042DA62D0
:100BD000C1F307425A631A46D36A002BFCDA264B4C
:100BE0009A6B4FF00042DA62E4B25C631A46D36A51
:100BF000002BFCDA204B9A6B4FF00042DA62C9B24C
:100C000059631A46D36A002BFCDA1B4B9B6B0278A4
:100C10001C4B53F83230012283F88020104B1B7894
:100C2000DBB113F0010F03D0104B1A68164B1A609A
:100C30000B4B1B7813F0020F03D00C4B5A68134B6D
:100C40001A60074B1B7813F0040F06D0074B9A6805
:100C50000F4B1A6001E00378B0E770BC704700BF2B
:100C6000C097FF1F80E100E0A897FF1FB497FF1F08
:100C700084E100E088E100E000C0024001401F0084
:100C800000001F80ACAE000000E100E004E100E0E5
:100C900008E100E0F0B40D680C68240A09684268B5
:100CA000454B1B78002B28D072B6434B1B7813F0B2
:100CB000010F07D0414B1F68414E36683E40414FFF
:100CC0003E601E603C4B1B7813F0020F07D03E4B7A
:100CD0001F683B4E76683E403A4F7E601E60364B42
:100CE0001B7813F0040F07D0384B1F68344EB668DA
:100CF0003E40344FBE601E6062B6354BDB689342A7
:100D000056D0334B334E1E60DA6042F080421A6197
:100D1000314A1A600378314A52F83330012283F89D
:100D200000212B4B4FF00042DA62C5F307455D63AB
:100D30001A46D36A002BFCDA254B9A6B4FF000421F
:100D4000DA62E4B25C631A46D36A002BFCDA204B09
:100D50009A6B4FF00042DA62C9B259631A46D36AFD
:100D6000002BFCDA1A4B9B6B02781C4B53F8323089
:100D7000012283F88020104B1B78DBB113F0010FA8
:100D800003D0104B1A68164B1A600B4B1B7813F0EC
:100D9000020F03D00B4B5A68124B1A60064B1B789C
:100DA00013F0040F06D0074B9A680F4B1A6001E04E
:100DB0000378B0E7F0BC7047C097FF1F80E100E008
:100DC000A897FF1FB497FF1F84E100E088E100E0CF
:100DD00000C0024001401F0000001F80ACAE0000B8
:100DE00000E100E004E100E008E100E0FFFFFFFFB8
:100DF0002DE9F041804614461D461046194616A3BB
:100E0000D3E9002304F0EEFF05F086FA0646144B02
:100E10009F88BFB21B899BB2B84203DB9842B4BF24
:100E200007461F46BFB20E490F804046FFF732FF0C
:100E3000B7420BD00A4B188880B205F06FFB094906
:100E400005F0C0FB04F07AFFBDE8F081204629469A
:100E5000BDE8F081AFF30080000000209B8C704063
:100E6000F894FF1FF880773B10B504460348D4E997
:100E70000023FFF7BDFFC4E9000110BD7495FF1FFB
:100E800008B5094B1A8892B2998889B21B899BB21E
:100E90008A4203D3934238BF1A4600E00A46024909
:100EA0000A80FFF7F7FE08BDF894FF1FF0B583B086
:100EB000094E06F170073446C6F101060425236881
:100EC000019301A831192A4601F064FF0434BC42A1
:100ED000F5D103B0F0BD00BFF894FF1F00B583B09B
:100EE0008100064B53F8203002A840F8043D013140
:100EF000042201F04FFF03B05DF804FBF894FF1FDC
:100F000008B50120FFF7EAFF08BD00BF08B50220C1
:100F1000FFF7E4FF08BD00BF08B5D0E9000108A352
:100F2000D3E9002304F05EFF05F01EFA80B2064B01
:100F300018840820FFF7D2FF08BD00BFAFF3008080
:100F4000000000209B8C7040F894FF1FAFF30080DE
:100F500008B50288024B9A850B20FFF7BFFF08BD3A
:100F6000F894FF1FFFFFFFFF08B5D0E9000108A3B9
:100F7000D3E9002304F036FF05F0F6F980B2064B02
:100F800098840920FFF7AAFF08BD00BFAFF30080D7
:100F9000000000209B8C7040F894FF1FAFF300808E
:100FA00010B5204B1B8A9BB2EBB11F4C204601F0C1
:100FB000D3F8204600210A4601F0D8F823685B6880
:100FC00020461A490C2298470022164B1A82042008
:100FD000FFF784FF4FF40062154B1A6040F2DC50BB
:100FE00002F0C4F810BD104C204601F0B5F82046C0
:100FF00000210A4601F0BAF823685B6820460D49D3
:101000000B2298470122074B1A820420FFF766FF44
:101010004FF40062084B1A6040F2DC5002F0A6F870
:1010200010BD00BFF894FF1F9C94FF1F50AB000041
:1010300088F00F4060AB000084F00F402DE9F047CE
:1010400082B0002001F090FEA02819D1DFF85C905A
:1010500009F1700A4F46E84601AE4446C8EB070561
:10106000C9EB05050134601901F07EFE04F8010C9E
:10107000B442F7D1009B47F8043B5745EDD112E04D
:101080000A4B0021198099804FF6FF721A819981CD
:101090001982998202A8A02340F8043D042201F09D
:1010A00079FEFFF703FF02B0BDE8F087F894FF1F59
:1010B0002DE9F041044690461F4601700846012183
:1010C00001F072FF244E237856F83330012583F85F
:1010D000805084F801804046294601F065FF63781E
:1010E00056F8333083F88050A7703846294601F00F
:1010F0005BFFA37856F8333083F880500620022136
:1011000001F052FF154B636000F084FFFFF796FF7C
:1011100020461349FFF714FD124D2B6843F4C0130A
:101120002B6000232B80102001F012FD08220E4BB3
:101130001A602046FFF7A4FE2B8A9BB22BB14FF416
:1011400000620A4B1A60BDE8F0814FF40062064B62
:101150001A60BDE8F08100BFACAE00000320033C84
:1011600001003800F894FF1F88F00F4084F00F4012
:101170002DE9F0472D4B1B8E9BB298424ED32B4B43
:10118000B3F86C309BB298424BD8284B1B8E9BB265
:10119000984209D9264B002201321C4633F8041B21
:1011A00089B28842F8D801E0224C0022D4F800909D
:1011B0000B321E4B53F822304FEA13481FFA83FAC2
:1011C000CAEB000004F0A8FD04460D46C8EB194028
:1011D00004F0A2FD06460F461FFA89F0CAEB000094
:1011E00004F09AFD02460B463046394604F024FFCF
:1011F00002460B462046294604F0F4FD04460D46FF
:10120000404604F089FD02460B462046294604F07C
:1012100037FC05F0A9F880B2BDE8F0870020BDE8F2
:10122000F0874FF6FF70BDE8F08700BFF894FF1F0E
:101230002C95FF1F2895FF1F38B5102001F0B6FC34
:1012400080B2FFF795FF05460A4C20460021012297
:1012500000F08CFF284605F061F9074905F0B2F966
:1012600004F06CFD02460B462046044902F056FE8F
:1012700038BD00BF9C94FF1FF880773B6CAB00002B
:1012800008B5102001F092FC80B2FFF771FF0F4B00
:101290001A8892B2101A1B8C9BB280EAE071A1EB03
:1012A000E071994210DD0028084B9B8CC6BF9BB2B1
:1012B000C3EB020212FA83F282F3100292B2034BE2
:1012C0001A800348FFF7DCFD08BD00BFF894FF1F3C
:1012D0007495FF1FF0B404460D462D4B03604B6818
:1012E00043608B68836000F10C0601F10C070FCF9F
:1012F0000FC63B6833702B6A2362264B2360D5E907
:101300000A23C4E90A2304F1300605F130070FCFA0
:101310000FC63B6833702B4653F8417F5E68986870
:10132000D968C4F84170C4F84560C4F84900C4F8ED
:101330004D101B7C84F851302B4653F8526F58687F
:101340009968DB68C4F85260C4F85600C4F85A10B3
:10135000C4F85E306B6E636695F8683084F8683068
:1013600095F8693084F86930EB6EE36695F8703073
:1013700084F8703095F8713084F871306B6F636762
:10138000AB6FA367EB6FE3672046F0BC704700BF0D
:1013900010AE000010AB0000F8B5044601F0F8F8FC
:1013A0002646154B46F8303BDFF850C065460FCD5A
:1013B00020637160B260F3602F78377465460FCD9B
:1013C000C4F84100C4F84510C4F84920C4F84D30B1
:1013D00084F85170002384F8523084F8703084F817
:1013E0007130636684F86930E36684F86830A36717
:1013F0006367E3672046F8BD10AB000074AB0000E4
:10140000F8B5044601F0C4F82646154B46F8283BCB
:10141000DFF850C065460FCDA0627160B260F36026
:101420002F78377465460FCDC4F83900C4F83D10E5
:10143000C4F84120C4F8453084F84970002384F88A
:101440004A3084F8683084F86930E36584F86130A4
:10145000636684F860302367E36663672046F8BDFF
:1014600028AB000074AB00002DE9F04FADF5437DD3
:10147000012840F06A824FF6FF73994240F065827E
:1014800001F02EFCC14D04A8C1492A46FFF784FF94
:1014900010ACC04E0FCE0FC433682370BE4C0FCCBF
:1014A000CDF85100CDF85510CDF85920CDF85D306C
:1014B000247802948DF86140B84B1D934FF0050AD3
:1014C0008DF879A04FF0010B8DF878B0DFF85C93C0
:1014D000CDF87C90B24E3068CDF86200B6F804804A
:1014E000B779ADF866808DF8687000248DF880407B
:1014F0008DF881B0AB4B2293AB4B2193AB4804A941
:10150000FFF7E8FE24A8AA492A46FFF745FF0DF198
:10151000C00EDFF81CC3BCE80F00AEE80F00DCF81B
:1015200000308EF80030DFF870E2BEE80F00CDF832
:10153000D100CDF8D510CDF8D920CDF8DD30029B03
:101540008DF8E130954B3D938DF8F9A08DF8F8B00A
:10155000CDF8FC903068CDF8E200ADF8E6808DF86B
:10156000E8708DF800418DF801B1924B4293924B97
:101570004193924B4393924824A9FFF7ABFE44A8B2
:1015800090492A46FFF708FF0DF5A07EDFF8A4C2B8
:10159000BCE80F00AEE80F00DCF800308EF8003039
:1015A000DFF8F4E1BEE80F00CDF85101CDF8551198
:1015B000CDF85921CDF85D31029B8DF86131774B23
:1015C0005D938DF879A18DF87841CDF87C913068E4
:1015D000CDF86201ADF866818DF868718DF88041B3
:1015E0008DF881B1784B6293784B6193784B63931C
:1015F000784844A9FFF76EFE64A877492A46FFF7AA
:10160000CBFE70AE754F0FCF0FC63B683370624E86
:101610000FCECDF8D101CDF8D511CDF8D921CDF827
:10162000DD31029B8DF8E1316D4B7D934FF0040964
:101630008DF8F9918DF8F8416A4B7F93DFF8F881C6
:10164000D8F80000CDF8E201B8F80430039398F818
:1016500006A0ADF8E6318DF8E8A18DF800428DF8CE
:1016600001B2614B8293614B8193614B83936148DB
:1016700064A9FFF72FFE84A85F492A46FFF7C0FE42
:101680008EAE5E4F0FCF0FC63B6833705C4E0FCEF1
:10169000CDF84902CDF84D12CDF85122CDF8553292
:1016A00096F800C08DF859C2564B1868CDF85A020A
:1016B0001B798DF85E32544E859B7360869BB360B8
:1016C00006F10C070DF5077EBEE80F000FC7DEF828
:1016D00000303B708C9B33624C4B33608D9B73624C
:1016E00006F128070DF50E7EBEE80F000FC7DEF8E5
:1016F00000303B70DDF84972DDF84D02DDF8511223
:10170000DDF85522C6F83970C6F83D00C6F841101C
:10171000C6F8452086F849C0DDF85A72DDF85E0249
:10172000DDF86212DDF86622C6F84A70C6F84E008F
:10173000C6F85210C6F85620354BF36586F860405F
:1017400086F86190334B736686F8684086F869B016
:10175000314BF366314B3367314B7367A2A8314984
:101760002A46FFF719FEAEAE2F4F0FCF0FC63B68CC
:101770003370094E0FCECDF8C902CDF8CD12CDF899
:10178000D122CDF8D532029B58E000BF9C94FF1FB8
:1017900088AB00009CAC00009CAB00004088FF1FA1
:1017A0006CAB0000690E0000650400000093FF1F91
:1017B000B0AB0000B90400008D040000010F000070
:1017C0008095FF1FC4AB00007105000049050000B3
:1017D0000D0F0000C893FF1FD8AB0000B0AC000095
:1017E0006888FF1FA488FF1F31060000090600005B
:1017F000190F0000B096FF1FF4AB0000C4AC00004E
:1018000008AC00001CAC00003097FF1F28AB0000A4
:101810009488FF1F8888FF1F81060000690600006A
:10182000510F000024AC0000D8AC00008C88FF1FD2
:10183000ECAC000000AD0000ECAB00008DF8D9323C
:10184000444BBB938DF8F1928DF8F042424BBD931F
:10185000D8F80000CDF8DA02039BADF8DE328DF83F
:10186000E0A28DF8F8428DF8F9B23C4BC0933C4BA6
:10187000BF933C4BC1933C48A2A9FFF72BFD0094BA
:101880003A483B492A463B4B00F052FF00943A4805
:101890003A492A463A4B00F04BFFDFF810814046A8
:1018A00038492A4600F0BCFE374F384E404639468C
:1018B000324604F0D7FFDFF8F880404634492A4624
:1018C00000F0AEFE40463946324604F0CBFFDFF86A
:1018D000E48040462F492A4600F0A2FE40463946A1
:1018E000324604F0BFFF2C48FFF724F91C2002F019
:1018F00071FB064629494FF4FA7200F0F5FB284FB8
:101900003E601C2002F066FB064626494FF47A72C0
:1019100000F0EAFB7E60242002F05CFB0646D7F86C
:101920000090D7F804802146224600F0DDFB1E4BD4
:101930003360C6F81C90C6F82080BE603475284617
:101940000F211922202300F075FD0DF5437DBDE820
:10195000F08F00BF6888FF1FA488FF1FC906000022
:10196000A1060000690F00003096FF1FD492FF1FF0
:1019700038AC0000451E00000096FF1F4CAC000074
:10198000A10F000060AC0000E51900003C88FF1FBB
:1019900074AC000088AC00007495FF1F8112000039
:1019A0009094FF1F3912000040AB00008093FF1F8E
:1019B000B094FF1F4894FF1F10B50446084B036006
:1019C000806830B14368A36002F008FBA06800287B
:1019D000F8D10023E36063602376204610BD00BF8A
:1019E000D8AA000010B50446034A40F8242BFFF79C
:1019F000E3FF204610BD00BF28AE00008268037ED2
:101A000023B143698B4203DC026902E0002300E05A
:101A10000023994206DD2AB152680133994201DD63
:101A2000002AF9D18B4205D101210176436102617F
:101A300010467047002070472DE9F04104460D46DE
:101A4000174643688B4205DC03689B68114698473C
:101A5000BDE8F08129B90368DB6811469847BDE805
:101A6000F081082002F0B6FA06464FF00008C0F8F0
:101A70000080C0F804802046691EFFF7BFFF376072
:101A800043687360466063680133636084F818805C
:101A90000120BDE8F08100BF10B51446002907DB26
:101AA0004368994206DAFFF7A9FF0460012010BDE0
:101AB000002010BD002010BD38B5044600291FDBF2
:101AC000436899421EDA19B90368DB69984738BD43
:101AD000013B8B4203D103689B69984738BD0139AC
:101AE000FFF78CFF43681D685A684260184602F091
:101AF00075FA6368013B636000232376284638BD8E
:101B0000002038BD002038BD70B50446416800296A
:101B10001DDD0023037601290FDD0239FFF76EFF7B
:101B200005464068066802F059FA00236B60E560DC
:101B30006368013B6360304670BD8068056802F0F1
:101B40004DFA0023A360E3606360284670BD002067
:101B500070BD00BF08B5FFF751FF08B1006808BDB0
:101B6000002008BD38B50C46154600E06468616881
:101B700019B12046A8470028F8DD204638BD00BF2F
:101B80002DE9F04F83B081460F464368012B4ADDB3
:101B900000F1080301934FF0000A0093009E3AE021
:101BA000484629463A46FFF7DDFF8046446844B977
:101BB000019B9E42F2D1C9F80C00002389F818302D
:101BC00031E0484621463A46FFF7CCFFD0F804B052
:101BD000C8F804A0C0F804A028462146B847002849
:101BE00003DC35602E1D6D6802E03460261D6468DC
:101BF000BDB1002CF0D112E01D466B68002BFBD16B
:101C00002E4646F804BF06E01C466368002BFBD155
:101C1000264646F804BF3568002DC1D1BEE73560C1
:101C2000EBE73460F1E703B0BDE8F08F08B50120C1
:101C30004FF6FF71FFF718FC08BD00BF2DE9F04F0C
:101C400083B0704B1B889BB201934FF400626E4BC4
:101C50001A606E4C204600F07FFA204600210A46AA
:101C600000F084FA23685B68204669490F22984790
:101C700020460021012200F079FA23685B682046A3
:101C800064490F22984741F2883001F06FFA2046EC
:101C900000210A4600F06AFA23685B6820465E4924
:101CA0001022984720460021012200F05FFA2368A5
:101CB0005B682046594910229847594C204600F04D
:101CC0004BFD0028FAD0564800F076FDC0B25028EF
:101CD00016D04E4C204600F03FFA204600210A461E
:101CE00000F044FA23685B6820464E490922984771
:101CF0004FF4FA6001F03AFA4B4800F061FC7DE0E5
:101D0000424800F029FADFF838B14FF0010A4FF0ED
:101D10000009C8463D4C454F07E04FF6FF7809F1F2
:101D200001090AF1010A0BF1040B204600210A46C1
:101D300000F01CFA3349A1F800803D48FEF7AAFFE5
:101D400023685B6820463B49052298472046414668
:101D500002F02EF90F25002620463146012200F020
:101D600005FA23685B68204639460622984710200A
:101D700000F01CFF0146204602F01AF94FF47A7079
:101D800001F0F4F9013DE7D1102000F00FFF80B21F
:101D900040EA0843CBF80030B9F10B0F04DC08F53A
:101DA00080681FFA88F806E0B9F10E0FB5D008F583
:101DB00080481FFA88F8BAF10F0FB0DDFFF776F808
:101DC000124C204600F0C8F923685B6820461A4987
:101DD000092298470B4C019B23801548FFF750F8C8
:101DE000238A9BB21BB14FF40062144B1A604FF46C
:101DF000FA6001F0BBF90C4800F0E2FB03B0BDE86B
:101E0000F08F00BFF894FF1F88F00F409C94FF1FD5
:101E100014AD000024AD000034AD000048AD00005A
:101E2000D097FF1F5CAD00008093FF1F70AD0000D6
:101E30007495FF1F68AD000078AD000084F00F407E
:101E40002895FF1F08B5FFF7F9FE08BD10B52F480C
:101E500000F082FC002809DD2C4800F0ADFC2C4B82
:101E60009B681A68C1B2D26818469047294B1B6814
:101E700013F0100F3BD1284B9B681B7D002B36D1F4
:101E80000AE0254B9B681A7D002A36D1224B9868C0
:101E900003689B68984710BD204C204600F05CF911
:101EA000204600210A4600F061F923685B6820465D
:101EB0001B491022984720460021012200F056F9C4
:101EC00023685B6820461749102298472046002166
:101ED000012200F04BF9104C2068134B998D0368D8
:101EE0001B6889B29847A36801221A75CEE7094B8F
:101EF0001B6813F0100FC4D1C8E700221A75044BF9
:101F0000986803681B689847C0E700BFD097FF1F19
:101F10008093FF1FD0F00F409094FF1F9C94FF1FF1
:101F200084AD00009CAB0000F894FF1F70B5092041
:101F3000012101F039F8284C0826266016200121DD
:101F400001F032F80225256000F064F8642001F009
:101F50000DF9224800F0BCFC214C204631462A46AF
:101F6000002300F0F3FA204600F0B0F91D4E304691
:101F70001D4900F041FB1D4C3046214600F03CFB62
:101F800020461B4900F038FB20461A4900F034FB7C
:101F90002046194900F030FB184D2046294600F034
:101FA0002BFB2046164900F027FB2846154900F078
:101FB00023FB2846144900F01FFB2846134900F074
:101FC0001BFB304600F0FCFA11481C211D221B238C
:101FD000FFF76EF870BD00BF84F00F40D097FF1F71
:101FE0009C94FF1F8093FF1F0093FF1FB094FF1F5F
:101FF0008095FF1FC893FF1F0096FF1F4894FF1F87
:10200000D492FF1FB096FF1F3097FF1F3096FF1F1F
:102010007495FF1F184B1A6842F480521A60174BD0
:10202000174A1A60174ADA6002F180421A61164AAA
:102030001A60164B1B7813F0010F07BF4FF4107294
:10204000134B4FF40072134B1A60104B1B7813F0B4
:10205000020F4FF400720CBF0F4B104B1A600B4B6A
:102060001B7813F0040F07BF4FF410720C4B4FF4A2
:1020700000720C4B1A6070473C80044000C0024064
:1020800001401F000110003800001F80F198FF1F61
:1020900018B0044008C004401CB004400CC0044008
:1020A00014B0044004C004400161436819448160D5
:1020B000704700BF8368C91A0029ACBF007D0020AB
:1020C000704700BF10B582B00446C36803B198479B
:1020D000044B1B680193019B636022691344A36056
:1020E00002B010BDFC97FF1F10B40346064C0460FD
:1020F00001240475C1600021416098610261826021
:102100005DF8044B704700BFB0AD0000416003694B
:1021100019448160704700BF704700BF704700BF1F
:1021200008B503685B6901229847012008BD00BF1C
:1021300000220271014A0260704700BFD0AD00006A
:1021400008B503681B69FF21984708BD08B50368F7
:102150005B690022984708BD08B50121FFF7F6FF2B
:102160004FF47A43013B7FF4FDAF08BD10B582B058
:102170000446104B53F8040B009018680190237A22
:1021800093429CBF03F1FF32D2B2208941F2040393
:10219000984202AB1A440CBF12F8043C12F8083CF7
:1021A000194461F07F012046C9B2FFF7CFFF02B0AA
:1021B00010BD00BFC0AD000008B5817941F0040238
:1021C000827141F00C01FFF7C1FF08BD38B504462C
:1021D000012A03D9407940F00800607122726172CF
:1021E0002BB1012A03D1637943F0040363716420A6
:1021F00000F0BCFF617911F0100F29D123685B69F1
:1022000020460321022298472F4B013B7FF4FDAF6C
:1022100023685B6920460321022298474FF49655B4
:102220002B46013B7FF4FDAF23685B692046032109
:10223000022298472B46013B7FF4FDAF23685B6980
:10224000204602210A469847013D7FF4FDAF1DE07C
:10225000204641F02001FFF779FF1B4B013B7FF443
:10226000FDAF6179204641F02001FFF76FFF4FF489
:1022700096552B46013B7FF4FDAF6179204641F036
:102280002001FFF763FF013D7FF4FDAF6179204638
:1022900041F02001FFF75AFF4FF4F063013B7FF458
:1022A000FDAF0423A3712046FFF786FF2046FFF70A
:1022B00053FF0223E37120460621FFF747FF204624
:1022C000FFF73EFF38BD00BF8032020008B58179BC
:1022D00041F00202827141F00A01FFF737FF08BDA9
:1022E00070B472B60469464B1B78002B28D072B6C6
:1022F000434B1B7813F0010F07D0424B1E68424D31
:102300002D683540414E35601D603D4B1B7813F004
:10231000020F07D03E4B1E683B4D6D6835403B4E6B
:1023200075601D60364B1B7813F0040F07D0394BD6
:102330001E68354DAD683540344EB5601D6062B6DF
:10234000354BDB68A34255D0334B344D1D60DC6008
:1023500044F080441C61324C1C60437B314C54F887
:102360003330012483F80041037BA2422D4A52F806
:10237000333007BF224683F88020012283F80021F2
:102380004FF49653013B7FF4FDAF234B4FF00042D7
:10239000DA6259631A46D36A002BFCDA1E4B9B6B38
:1023A0004FF49653013B7FF4FDAF154B1B781BB3E5
:1023B00013F0010F03D0154B1A681B4B1A60104B1A
:1023C0001B7813F0020F03D0104B5A68174B1A609A
:1023D0000B4B1B7813F0040F03D00C4B9A68144B73
:1023E0001A60437B0F4A52F83330012283F8802071
:1023F00062B603E0437BB1E7437BF3E770BC704711
:10240000C097FF1F80E100E0A897FF1FB497FF1F50
:1024100084E100E088E100E000C0024001401F00CC
:1024200000001F80ACAE000000E100E004E100E02D
:1024300008E100E0F8B504460F4616461D46FFF7D2
:1024400077FE044B2360E77226736573024B2361AA
:102450002046F8BDF0AD00000000023870B504461B
:10246000C07A012100F0A0FD607B012100F09CFDFD
:10247000207B012100F098FD334EE37A56F833308B
:10248000012583F88050237B56F8333083F8805041
:10249000637B56F8333083F88050E37A56F8333054
:1024A00083F80051022000F061FE23685B6920463A
:1024B000302100229847022000F058FEE37A56F8B7
:1024C000333083F8805023685B6920463021002236
:1024D000984723685B69204630210022984723688B
:1024E0005B69204639210022984723685B692046B2
:1024F00014210022984723685B6920465621002258
:10250000984723685B6920466D210022984723681D
:102510005B69204670210022984723685B6920464A
:102520000C210022984723685B692046062100227F
:10253000984723685B6920462946002298470A206D
:1025400000F014FE70BD00BFACAE0000F8B504464C
:102550000F4616461D46FFF75DFD2046FFF77EFF3E
:102560002046394632462B46FFF730FE2046FFF71D
:10257000F3FD204600210A46FFF7F8FDF8BD00BF35
:10258000704700BF704700BF704700BF704700BF73
:1025900038B504461546054B0360002343600C30F4
:1025A00004F0EAFE2562204638BD00BF10AE0000F0
:1025B00008B5406810B103681B68984708BD00BFA4
:1025C00070B504460B4B9860006A00210A46FFF77D
:1025D000CDFD266A04F10C05284604F02BFF0246C7
:1025E00033685B6830462946984723689B682046D5
:1025F000984770BD8093FF1F38B504460D462430C0
:10260000FEF7F0F96C6038BD044A02600022826077
:10261000C26042600261426102767047D8AA00003F
:1026200010B50446FFF7B4FF2046054B40F8243BA5
:10263000FFF7EAFF002384F840306364204610BDB2
:1026400028AE000038B50446006A00210122FFF7D9
:102650008DFD256A04F1240094F84010FFF77AFA02
:1026600000F10C04204604F0E5FE02462B685B688E
:1026700028462146984738BD08B503462B392529F9
:1026800046D8DFE801F01345224545454545454517
:1026900045454545454545454545454545454545EA
:1026A000454545424545454545454537426C01321E
:1026B0004264816A92FBF1F001FB102283F8402012
:1026C0001A6892681846904708BD426C013A426405
:1026D000002A02DA826A013A4264596C9A6A91FBD2
:1026E000F2F002FB101283F840201A689268184634
:1026F000904708BD243093F84010FFF72BFA054AA5
:10270000906003681B68984708BD0268526890474C
:1027100008BD00BF8093FF1F10B50446436A0BB18C
:1027200028309847606810B103681B68984710BD4F
:1027300070B504460E461D46FFF72AFF2046054B9E
:1027400040F80C3B314604F017FE6562049BA3621F
:10275000204670BD40AE00000369198809B2426985
:10276000914206BF9878C0B201207047036919886A
:10277000426909B2914216DB198809B28A4214DB18
:102780009A7812F0FF0F12D099685A688A1AB2F537
:10279000967F0FD89A685B68D31A322B8CBF502073
:1027A0004FF0FF3070472D2070472B2070474FF0BF
:1027B000FF3070474820704703691988426909B2A1
:1027C000914204DA1B881BB243612D20704719889F
:1027D00009B28A4204DA1B881BB243612B2070477E
:1027E0009A7812F0FF0F11D000229A70036999684D
:1027F0005A688A1AB2F5967F0BD89A685B68D31A22
:10280000332B34BF4FF0FF30502070474FF0FF3074
:1028100070474820704700BF03691A8812B24261AE
:1028200000229A70704700BF41610369198001203E
:10283000704700BF084B1A78084B53F8323093F8B2
:10284000003213F0FF0F064B1A8814BF013202F159
:10285000FF3292B21A807047A0AD0000ACAE00000B
:10286000C497FF1F82B00E4B1A780E4B53F83230CC
:1028700093F8003213F0FF0F08D00B4B1B68009346
:10288000009A0A4B9A6001229A7007E0064B1B6877
:102890000193019A054B5A6000229A7002B070476A
:1028A0009CAD0000ACAE0000FC97FF1FC497FF1F5B
:1028B00010B4002202714FF47A7484600273034CE6
:1028C0000460016142615DF8044B704758AE00003E
:1028D00038B50E4B1D782846022100F065FB0C4BE5
:1028E0001878022100F060FB0A4B1C782046022178
:1028F00000F05AFB28460849022200F095FB2046CA
:102900000649042200F090FB38BD00BF98AD0000DE
:10291000A0AD00009CAD0000352800006528000037
:1029200008B502480249FFF7C3FF08BDD097FF1F53
:10293000C497FF1F30B4394A3949136813F0800F28
:10294000FBD10B6813F0800FF7D172B6354B1B78B3
:10295000002B5FD0344B1C6804331D6804331868A7
:102960000433196804331A6804331B682C44204468
:1029700001440A441A44C2F34E0242F400422B4B73
:102980001A602C331C6804331D6804331868043340
:10299000196804331A6804331B682C44204401442A
:1029A0000A441A44C2F34E0242F40042204B1A6019
:1029B00003F108131C6804331D68043318680433DA
:1029C000196804331A6804331B682C4420440144FA
:1029D0000A441A44C2F34E0242F40042154B1A60F4
:1029E0002C331C6804331D680433186804331968D9
:1029F00004331A6804331B682C44204401440A44FD
:102A00001A44C2F34E0242F400420B4B1A600022F9
:102A1000044B1A7062B630BC704700BF24B003404C
:102A200024B00B40F597FF1F38B003402CB0034093
:102A300030B003402CB00B4030B00B4060223A4B1A
:102A40001A70E12201331A70384B1B78082B10D111
:102A5000012203F1804303F56C331A6013233449D8
:102A60000B6001F5FF2101F2FC710A60314A13602D
:102A70001FE00A2B0DD139222F4B1A6013232C494A
:102A80000B6001F5FF2101F2FC710A60294A136015
:102A90000FE00C2B0CBF35223D22274B1A6012236E
:102AA00023490B6001F5FF2101F2FC710A60214A04
:102AB0001360224B1B7833B10123214A136002F5C6
:102AC0000022136005E000231D4A136002F5002276
:102AD00013601C4B1B78012B06D880231A4A136005
:102AE00002F5002213601AE0042B06D88423164A4C
:102AF000136002F50022136011E0082B06D885232D
:102B0000114A136002F50022136008E0102B94BFF5
:102B1000862387230C4A136002F5002213600122EA
:102B20000A4B1A70704700BF00400740A888FF1F7B
:102B30000CB003400CB00B4008B00340F897FF1FE7
:102B400020B00340A988FF1F24B00340F597FF1F62
:102B500008B50C2804D9102828BF1020102307E03E
:102B60000A2804D8092834BF08230A2300E00C23CC
:102B7000DAB2101A094908700949097899420CD04B
:102B8000074B1A70074B1B782BB10023064A1360C2
:102B900002F500221360FFF751FF08BDF497FF1FF5
:102BA000A888FF1FF597FF1F24B003402DE9F843C5
:102BB000282873D83C4B1E5CFF2E72D03B4B1B78F1
:102BC0000BB1FFF7B7FE16F0800F29D172B6384C63
:102BD000384D4FF0010726602F7062B672B6236839
:102BE00013F0800F04D12B7813F0FF0F0FD1F2E711
:102BF000314B186800222F4B1A7062B62F4B1B788E
:102C00001841BDE8F8832B7813F0FF0FE3D062B6CC
:102C100001F0E8F972B6236813F0800FF3D0E7E70C
:102C200072B606F040095FFA89F9254F254C06F087
:102C30003F06254D4FF00108B9F1000F04D03B6865
:102C400023F010033B6003E03B6843F010033B605C
:102C5000266085F8008062B672B6236813F0800F94
:102C600004D12B7813F0FF0F0FD1E5E7174B18684D
:102C70000022154B1A7062B6104B1B781841BDE844
:102C8000F8832B7813F0FF0FD6D062B601F0AAF9C3
:102C900072B6236813F0800FF3D0E7E70020BDE899
:102CA000F8830020BDE8F88370AE0000F597FF1FA1
:102CB00000B00340F797FF1F10B00340F497FF1FC9
:102CC0000CB00B4000B00B40F697FF1F10B00B404C
:102CD000024A137813F0010FFBD070470100024045
:102CE00010B584B01B4B6C46186859689A68DB684D
:102CF0000FC4194B1B7813F0020F23D0174B1B780E
:102D000013F070031CBF154A13708022144B1A7005
:102D10000022033B1A70332207331A700322013B4F
:102D20001A7072B66B4643F001030C4C204698476C
:102D300062B6237813F0700304D0237008E0013BDF
:102D400002D105E0074B04490A7812F0010FF6D0D2
:102D500004B010BD9CAE0000010002400000024023
:102D600007000240410D030010B50446B0F5006FA6
:102D70000BD2074B1B7813F0010F01D1FFF7B0FF07
:102D800004F1A0542078C0B210BD002010BD00BFD7
:102D9000010002402DE9F04106460F4615460C465B
:102DA000B1F5006F67D2354B1B7813F0010F01D1DD
:102DB000FFF796FFB5F5006F28BF4FF400657B194C
:102DC000B3F5006F28BFC7F50065002D53D02C4F19
:102DD00014F003031ED1032D1ED933787178B27815
:102DE000120442EA01221A4306F10408F37842EA87
:102DF000036204F1A0531968914207D0397811F0A9
:102E0000700118BF39701A60FFF762FF0434043D87
:102E100046462EE0022B18D1012D16D906F10208E4
:102E20007278337843EA022204F1A0531988914260
:102E300007D0397811F0700118BF39701A80FFF788
:102E400047FF0234023D464613E006F1010832789E
:102E500004F1A0531978C9B2914207D0397811F022
:102E6000700118BF39701A70FFF732FF0134013D4D
:102E70004646002DACD1BDE8F08100BF0100024004
:102E800000000240024B1A6801321A60704700BF0E
:102E9000FC97FF1F08B50D4C236813F4802F01D059
:102EA00000F0BAFA236813F4806F01D001F07CFCC3
:102EB000236813F4006F01D002F028F8236813F49C
:102EC000805FE9D002F0E0FAE6E700BF348004401A
:102ED00008B5FFF7DFFF00BF1022014B1A807047D3
:102EE00000200540704700BF024A13681844106074
:102EF00018467047AC88FF1FFEE700BFEFF313834F
:102F0000ABB9EFF31083ABB9EFF3058323B10F2B0C
:102F100005D9094A985C03E04FF4807000E0002076
:102F2000EFF311833BB1834238BF184670474FF02F
:102F3000FF30704700207047F0E300E0704700BFAB
:102F4000044B00221A6004490A60044A10601022EF
:102F50001A60704714D0034004D0034000D00340EF
:102F600021281ED80F4B53F8303093F8802212F0EE
:102F7000FF0F08D019B1012283F880207047012289
:102F800083F800217047074B03EBC000436821B171
:102F90001A6842F003021A6070471A6822F00202AF
:102FA0001A607047ACAE000021283AD81D4B03EBE5
:102FB000C0035B68012919D0042925D0194A52F8A9
:102FC0003020002082F8800219B94FF480721A6014
:102FD0007047022903D140F203121A607047032997
:102FE0000CBF4FF4817200221A6070470D4A52F8EC
:102FF0003020012182F880124FF4A2721A601A6800
:1030000022F020021A607047064A52F8302001214F
:1030100082F880124FF4A2721A601A6842F02002FD
:103020001A607047ACAE000070B50D46212861D81B
:10303000042A5FD8DFE802F00709050B03000B2321
:1030400006E00A2304E0082302E00C2300E0092341
:103050001E04294B03EBC0035C68236813F4E06F84
:1030600002D10021FFF7A0FF244B254AC3F89C2181
:10307000244AC3F8A021244AC3F8A421234AC3F850
:10308000A821234AC3F8AC2104F14043A3F59223BD
:103090007C2B18D904F14042A2F594227C2A14D941
:1030A00004F14043A3F596237C2B10D904F140434F
:1030B000A3F598237C2B0CD904F14043A3F59A2364
:1030C0007C2B08D970BD134906E0134904E013496D
:1030D00002E0134900E0134972B6236823F4702319
:1030E0002360C4F3840241F8225043F080731E43EE
:1030F000266062B670BD00BFACAE00000082FF1F4C
:103100001188FF1FE587FF1FB987FF1F8D87FF1FEE
:103110006187FF1FB088FF1FE888FF1F3889FF1FE6
:103120006889FF1F8889FF1F72B60C4B1B680C4A09
:1031300012680C49096862B611F0806F02D0322B18
:1031400088BF0132C3F5BB33FF330749A1FB03033B
:103150009B094FF47A7000FB0230704718E000E0E2
:10316000FC97FF1F04ED00E0ABAAAAAA38B50546FC
:10317000FFF7DAFF044625B938BD013D0AD004F552
:103180007A74FFF7D1FF001BB0F57A7FF5D200F01B
:1031900029FFF6E738BD00BF10B5264B4FF40002FB
:1031A0001A604FF080721A604FF000721A604FF090
:1031B00080621A604FF000621A6000201E4B186097
:1031C0004BF6FF710433196028231C4A1360083240
:1031D000136008321360083213600832136008323B
:1031E000136008321360083213600922144C226005
:1031F00004F58054043420600434216004342360D6
:1032000008342360143C226004F5FE24043420605A
:103210000C4801600C490B6008310B600B4B1A60C5
:10322000FFF70CFC4FF4C870FFF7A0FF00F074FC30
:1032300010BD00BF08E100E0048003400C800340A3
:103240000080034008800B400C800B4000800B4046
:1032500030B40E4B1B7843F002020D4C04EBC20459
:1032600060600C48007800280CBF8824C82444EA19
:103270000141074D45F8321080F00100054A1070F9
:1032800083F00103014A137030BC70476898FF1F38
:103290000080FF1FE198FF1F10B4431E032B11D8BD
:1032A00072B60A4A52F8230050B14268074941F801
:1032B0002320074A32F813400188611A22F81310BC
:1032C00062B600E000205DF8044B70475898FF1F7D
:1032D000F89AFF1F013803280DD872B6074B53F830
:1032E00020302BB1002001305B68002BFBD100E0C7
:1032F000002062B670470020704700BFAC98FF1FE7
:1033000038B572B601231B491B4C5A1812F8012C10
:1033100012F0080F24D09A0054F832506DB9164BB1
:1033200003EBC20108304860144943F83210144BD3
:103330001A78013A1A7062B638BD42F0010254F8A8
:1033400032506DB90C4B03EBC201083048600D4997
:1033500043F832100A4B1A78013A1A7062B638BD37
:103360000133052BD1D162B60022054B1A7000F053
:1033700037FC38BDBCAF00000080FF1F8800400054
:10338000D698FF1FC800400010B4431E032B37D847
:10339000400140F010001C4A104472B61B4AD25C37
:1033A000032A09D8DFE802F019021B0508300222BF
:1033B00016E00830042213E0154A52F823201AB907
:1033C000134A42F8231003E0124A52F823205160B6
:1033D000104A42F8231062B612E0032200E00522F0
:1033E0000A4CE25401F10803436000F00803002B8B
:1033F0000CBF8823C8230A8843EA0243036062B6ED
:103400005DF8044B704700BF0080FF1F1498FF1F3A
:10341000AC98FF1FBC98FF1F2DE9F84FA34CDFF8B5
:10342000E092DFF8E0A2DFF8E0B22578EDB215F027
:10343000040F1DD09E4B1B7813F0FF0F16D09D4B31
:103440001B7803F0FF022BB1531EDBB2994A1370B5
:1034500003B900BE984B1B7803F0FF0233B1531E33
:10346000DBB2954A13700BB900F018FD04232370EA
:1034700015F0080F00F0E48299F80030DBB21D0966
:1034800040F021828D4D9E0805EBC6035A6855F821
:103490003630C3F38303013B0C2B00F21082DFE8CC
:1034A00013F0CB01CB010E020E020E020E020E0231
:1034B0000E02E8010E020E020E020D008049136892
:1034C0000B6052684A607F4A45F8362000227E49E8
:1034D0000A607A490A618A6101217C4A11709BB2B3
:1034E00040F28162934218D8B3F5D06F2ED2B3F573
:1034F000817F00F01E8106D8802B00F0C980822BCE
:1035000000F0CC8066E140F20232934200F0268166
:10351000B3F5A06F00F062815CE142F221029342B8
:1035200000F0868107D8B3F5086F00F0AB80B3F5E3
:10353000106F11D04EE142F22122934200F04181FE
:1035400042F22132934200F0498143E1604B5D68D1
:10355000002D40F0188130E1594B9A78544B1A7085
:10356000564D05F180062B6A13F0800F03D0686A70
:10357000083800F035FB0835B542F4D1DFF88C810E
:1035800000263746534AB05828B1456800F028FB5A
:103590000DB12846F9E700234E4973504E4AB35007
:1035A0004E4BF05828B1456800F01AFB0DB1284683
:1035B000F9E7002349497350494AB35028F8023FBC
:1035C000484BFB5C023B032B0AD8DFE803F0020602
:1035D00002060022434BDA5502E00122414BDA5544
:1035E00001370436102ECDD100223F4B1A70012531
:1035F0003E4EDFF81C81314F05EB080313F8013C08
:1036000006F8043B13F0080F2DD000F0C9FA48B1BA
:10361000A90007EB451200F108035360344A47F84C
:10362000312007E0AB00002247F833202E4B1A78F8
:1036300001321A7000F0B4FA58B1AB0043F0010344
:1036400007EBC30100F108024A601E4A47F8332025
:1036500009E0AB0043F00103002247F83320224B7E
:103660001A7801321A70AA0042F00201002347F8CA
:10367000313042F0030247F8323001351D4B9E4293
:10368000BAD11EE20A4B1B781B4D2B700127AAE012
:10369000194D00232B706B700227A4E0084B9B8808
:1036A000042B37D90F22154B1A70C1E08020074038
:1036B000E098FF1F6998FF1FE298FF1F0080FF1F1F
:1036C000CC98FF1FC80040000098FF1FE198FF1F23
:1036D000C0AF00005898FF1F0498FF1FAC98FF1F51
:1036E000BC98FF1F1498FF1FD698FF1FC4200740E7
:1036F00088004000D4200740D898FF1FC020074012
:10370000902007409420074098200740F69AFF1F1A
:10371000BCAF0000A04A0021117051709F4A12F8FE
:10372000233013F0020F5CD09B4D01232B70022736
:1037300059E09B4B9B8803F07F03042B02DC984AE3
:1037400052881AB10F22954B1A7071E0934A12F801
:10375000231021F0020102F82310B2E1904B9B8864
:1037600003F07F03042B02DC8D4A52881AB10F222A
:103770008A4B1A705CE0894A12F8231041F002016A
:1037800002F823109DE1864B5E889F88854BA3F14C
:103790000C02114633F80C0CB04209D133F80A0C74
:1037A000B84205D1360A032E0CBF2F7817891AE0CC
:1037B0000D690C330C32002DEBD10F22774B1A70B0
:1037C00036E0794B1A68794B1A60754B9A78784BCA
:1037D0001A7076E10F22714B1A7029E000273D46DE
:1037E00001E002276C4D6E4BDB889F4228BF1F46CD
:1037F000402F34BF3E46402628463146FFF728FD7D
:103800003544BF1B03D13F2E00F2608110E0402FF2
:1038100034BF3E46402628463146FFF719FD354461
:10382000BF1B01D13F2E03D9624B1D60624B1F802D
:1038300001238AF8003042E0594B198842F22103F3
:10384000994212D15D4BD81D12F8011B03F8011FDC
:103850008342F9D15A4B1B68862B02D10F22594B58
:103860001A7000200146FFF7F3FC574B45F836303D
:1038700025E0504B1E68BEB14F4FB7F80080B8F13D
:10388000400F34BF4546402530462946FFF7E0FC4F
:10389000C5EB08039BB23B800BB9402D01D13544E9
:1038A00000E00025434B1D603D4B1B88B3F5A06F26
:1038B00005D13B4B00225A709B788BF800300123D6
:1038C0008AF80030B9E0414E9F0806EBC708D8F8E7
:1038D0000420A2F10800013DEDB213F0080F47D01B
:1038E00000F07EF93A4B53F825304BB35A6838490B
:1038F00041F8252003F10802C8F80420354A525D3A
:10390000032A12D8DFE802F002060A0E0321314A28
:1039100051550AE002212F4A515506E005212D4A52
:10392000515502E004212B4A515518F0080F0CBFE5
:103930008822C8221B8842EA034346F837307CE0DD
:10394000244B5B5D032B0BD8DFE803F0777702068F
:103950000022204B5A5570E001221E4B5A556CE054
:1039600018F0080F0CBF022203221A4B5A5564E0CC
:1039700056F837301B0C22F8083C002B55D000239A
:1039800022F8063C42F8043C134B53F825302BBB7D
:10399000114B43F8250025E0D898FF1FC0200740B1
:1039A000CC98FF1FCCAF0000FC97FF1F089BFF1FA8
:1039B000F098FF1F0098FF1FD498FF1FFF9AFF1F6A
:1039C000009BFF1F6998FF1FC80040000080FF1F79
:1039D000AC98FF1F1498FF1F5898FF1F3F4B53F8D8
:1039E000253058603D4B43F825003D4B33F815100A
:1039F00032F8082C0A4423F8152000F0D1F860B101
:103A000000F10803C8F8043018F0080F354B364AA7
:103A100008BF134646F837300FE0002346F837302A
:103A2000324B1A7801321A7007E018F0080F2D4B4C
:103A30002D4A08BF134646F8373008232370F4E4B4
:103A400015F0010F22D02A4902230B700022294BC6
:103A50001A70294B24481860284C5C6098602848EC
:103A6000D8601A619A610D20264B1870FF232648F2
:103A700003700838037018300270244A13709F22B4
:103A8000234B1A7001230B70BDE8F88F15F0800FDF
:103A900005D00D221B4B1A708022403B1A7015F086
:103AA000020F06D0184B1A78D2B21A700222083BC5
:103AB0001A7015F0100F0ED01022164B1A70BDE8B8
:103AC000F88F00200146FFF7C3FBB1E6284600212E
:103AD000FFF7BEFBACE6BDE8F88F00BF0498FF1F00
:103AE000F89AFF1FC800400088004000D698FF1FCA
:103AF000942007406898FF1F0080FF1F1898FF1F41
:103B00006C98FF1FC0200740882007408C2007408A
:103B1000842007408020074008B501F029FD0023DC
:103B20001B491A465A50C81842600833882BF9D1ED
:103B3000184B1A6842F480221A60154BC3F3072110
:103B4000154A1170C3F30741143211701B0E043271
:103B50001370FF23343A137008321370783A1370DD
:103B600001238432137000216C3211707C3A13707F
:103B700070220A4B1A704FF40072A3F241331A609C
:103B8000102203F1C04303F5C8231A7008BD00BF1B
:103B90000080FF1F348004409C20074049E400E07F
:103BA00072B60D4B1A68B2FA82F30B2B02D962B6C9
:103BB000002070474FF00041D94022EA0102064937
:103BC0000A6062B6054903EBC303DB00C818002294
:103BD000CA504260704700BF9089FF1F0084FF1FDA
:103BE00008B50F4BC31A0F4AA2FB03131B090B2B7B
:103BF00014D80D4A12783AB10C4A127812F0FF0F1D
:103C000002D0FFF77DFB08BD72B6094A4FF00041B4
:103C100021FA03F311681943116062B608BD00BFB1
:103C20000084FF1F398EE338D698FF1FE098FF1FEE
:103C30009089FF1F10B5134B1B6853B9124B1B78AB
:103C400013F0FF0F18D00320FFF726FB0D4B186071
:103C5000A8B10C4B186843885A1C03441C7A03888B
:103C60009A4206D3FFF7BCFF0022064B1A6020469B
:103C700010BD4280204610BD4FF0FF3010BD4FF008
:103C8000FF3010BDEC98FF1FE098FF1F08B50D4BEB
:103C90001B6883B90C4B1B7813F0FF0F08D003206F
:103CA000FFF7FAFA074B186028B94FF0FF3008BD4C
:103CB0004FF0FF3008BD034B1B685A881344187A35
:103CC00008BD00BFEC98FF1FE098FF1F044B9888C9
:103CD000044B1B681BB11A885B88D31A18447047C1
:103CE000F89AFF1FEC98FF1F10B50B4B1B7813F0D1
:103CF000FF0F0FD0094B186820B1FFF771FF0022AA
:103D0000064B1A6003242046FFF7C6FA10B1FFF7EE
:103D100067FFF8E710BD00BFE098FF1FEC98FF1F9A
:103D20002DE9F84F04460122384B1A708B460029C2
:103D300065D00E46DFF8E080DFF8E0909A46344F19
:103D4000D8F8003083BB99F8003013F0FF0F06D18C
:103D500000222E4B1A704FF0FF30BDE8F88F4AF268
:103D6000F9250420FFF7B6FA07280AD801238AF8B4
:103D70000030FFF715FFC8F80000A8B900238AF843
:103D80000030013D01D03B7833B10122204B1A7045
:103D90004FF0FF30BDE8F88F00F024F999F80030BB
:103DA00013F0FF0FDDD1D3E700233B70D8F80010EC
:103DB0004A88C2F14005AE4238BF354602F10803D9
:103DC0000B442A444A80761B3DB1254414F8012B4C
:103DD00003F8012BAC42F9D100E025464B883F2B7C
:103DE00007D940230B800420FFF7CEFA0023C8F840
:103DF00000300522074B1A700EB12C46A0E70022B6
:103E0000024B1A705846BDE8F88F00BFE398FF1FB9
:103E1000E898FF1FE298FF1FE498FF1FE098FF1F3C
:103E200000B583B002AB03F8010D18460121FFF77E
:103E300077FF03B05DF804FB10B5144B1B7813F04B
:103E4000FF0F21D00122124B1A70124B196851B189
:103E50000024114B1C704B880B800420FFF794FA50
:103E60000C4B1C600DE0FFF79BFE014630B10022B9
:103E7000094B1A700420FFF787FA02E00122064B73
:103E80001A700022024B1A7010BD00BFE098FF1F8D
:103E9000E398FF1FE498FF1FE298FF1F08B50E4B41
:103EA0001B7813F0FF0F16D10C4B196841B14B88EA
:103EB0000B800420FFF768FA0022084B1A6008BD47
:103EC000FFF76EFE014618B10420FFF75DFA08BD4A
:103ED0000122034B1A7008BDE398FF1FE498FF1FEF
:103EE000E298FF1FF8B506460F46144652B100256A
:103EF00033681B68304617F8011B98470544013C9E
:103F0000F6D100E000252846F8BD00BF10B51446E4
:103F100003685B689847204610BD00BF0EB400B52B
:103F200082B003AA52F8041B019203F0D9FA02B03E
:103F30005DF804EB03B07047F0B58BB0164622B9BC
:103F400003681B68C9B298472FE0012A08BF0A26F8
:103F500021B930228DF82520212417E0212437466D
:103F6000B1FBF6F506FB1515EDB22246092D94BFFF
:103F700030353735EDB20DF1280E724402F8245C6D
:103F8000B1FBF7F111B1013CE4B2E9E733B1013C17
:103F9000E4B20AAB23442D2203F8242C03685B68A7
:103FA00001A92144C4F1220298470BB0F0BD00BF23
:103FB00008B50029BABF49422D2300230A22FFF782
:103FC000BBFF08BD08B5FDF7B1FFFDF73FFF00F0EF
:103FD00009F8FAE708B502F07DFC08BD08B502F063
:103FE00081FC08BD08B50F4B1B78CBB901220D4BE6
:103FF0001A70FFF76BFE08B101F004FD00F04AFBF8
:1040000008B101F08BFB00F0F7FE08B101F028FCCD
:1040100001F0C4F908B101F0C5FC0022014B1A708F
:1040200008BD00BFF298FF1F844641EA000313F069
:1040300003036DD1403A41D351F8043B40F8043BAF
:1040400051F8043B40F8043B51F8043B40F8043B72
:1040500051F8043B40F8043B51F8043B40F8043B62
:1040600051F8043B40F8043B51F8043B40F8043B52
:1040700051F8043B40F8043B51F8043B40F8043B42
:1040800051F8043B40F8043B51F8043B40F8043B32
:1040900051F8043B40F8043B51F8043B40F8043B22
:1040A00051F8043B40F8043B51F8043B40F8043B12
:1040B00051F8043B40F8043B403ABDD2303211D3B2
:1040C00051F8043B40F8043B51F8043B40F8043BF2
:1040D00051F8043B40F8043B51F8043B40F8043BE2
:1040E000103AEDD20C3205D351F8043B40F8043BB2
:1040F000043AF9D2043208D0D2071CBF11F8013BB0
:1041000000F8013B01D30B8803806046704700BF75
:10411000082A13D38B078DD010F003038AD0C3F184
:104120000403D21ADB071CBF11F8013B00F8013B66
:1041300080D331F8023B20F8023B7BE7043AD9D325
:10414000013A11F8013B00F8013BF9D20B780370FA
:104150004B7843708B7883706046704730B400238F
:10416000B0FBF2F402FB14041D46092C94BF30345A
:104170003734E4B2CC54B0FBF2F008B10133EFE7CE
:104180000D4400226A70934207DD885CCC5C8C543D
:10419000C8540132013B9A42F7DB084630BC7047F5
:1041A000254B1A6842F480621A600023234A137078
:1041B000234A1370234A1370234A1370234A13703F
:1041C000234B1B7813B1152B05D008E040F21332B6
:1041D000204B1A6003E040F213321F4B1A601F4B52
:1041E0001B78012B02D0052B05D008E04FF451724B
:1041F0001B4B1A6003E04FF451721A4B1A60C0F364
:104200004432194B1A70C0F347125A7000F01F0065
:10421000987204229A700221D9745A7588221A74ED
:104220003C22DA704022114B1A704FF40052A3F274
:1042300029331A60704700BF348004408099FF1F03
:10424000F998FF1F8899FF1F8199FF1FF898FF1F9A
:104250003C99FF1F40A0044018C004409489FF1FF0
:1042600044A004401CC0044000A006402DE400E02F
:10427000164B9B7803F0EC0300F00302134310F09D
:10428000040F18BF43F01003104A937000F00F039F
:10429000042B04D11346927942F040029A710B4BE1
:1042A0005A7902F0EF0210F0100F18BF42F010021E
:1042B000064B5A719B7903F0EF0310F0200F18BFE3
:1042C00043F01003014A9371704700BF00A00640FD
:1042D00010B5144B1B6813F4806F21D0124B1B7860
:1042E00013F0FF0F06D0104CFFF77CFE237813F07D
:1042F000FF0FF9D14FF400520C4B1A6000230C4A07
:10430000D37040F203120B490A6004310A600A4A72
:1043100013700A4A13700A4B1B680BB101221A7002
:1043200010BD00BF34800440F898FF1F84E100E016
:1043300000A0064040A004408099FF1FF998FF1F8D
:10434000F498FF1F10B50446094A137813F0FF0FC5
:10435000FBD120460121FEF727FE20460021FEF773
:10436000FFFD044B53F83420034B1A6010BD00BF0F
:10437000F898FF1FACAE00008499FF1F10B40C46E4
:1043800009B140F08000184B1B78984228D0174A9A
:10439000126812F4806F21D003F07F03012B02D04A
:1043A000052B04D006E00022114B1A6002E0002227
:1043B000104B1A60002C0CBF4422602200F07F03D7
:1043C000012B02D0052B05D008E042F44072084BC7
:1043D0001A6003E042F44072064B1A60024B1870F8
:1043E0005DF8044B704700BF9489FF1F3480044080
:1043F00044A004401CC00440114B1B7898421ED0BE
:10440000104A126812F4806F17D013B1152B04D024
:1044100006E000220C4B1A6002E000220B4B1A60EF
:1044200010B1152805D008E040F21332064B1A608F
:1044300003E040F21332054B1A60014B18707047CD
:104440003C99FF1F3480044040A0044018C0044041
:1044500010B50D4B1B6813F4806F12D021280CD8B7
:104460000A4C0B4B53F8303023600121FEF79CFDC2
:10447000236800221A70012010BD0020034B186031
:1044800010BD002010BD00BF34800440F498FF1F11
:10449000ACAE0000114B1B6813F4806F1BD01228C8
:1044A00004D140F202320E4B1A600DE0142804D100
:1044B00040F202320B4B1A6006E00B4B5A7B02F0C3
:1044C000FE025A7300207047074B5A7B42F00102EC
:1044D0005A73012070470020704700BF34800440A9
:1044E0000CA0044014C0044000A006402DE9F04197
:1044F00007461F4B1B6813F4806F37D01D4B1B689A
:104500000BB101221A701C4B1C780134402C28BFBF
:1045100000241A4D1A4EDFF86C8017E0FEF7EEFC0F
:1045200040280FDC337913F0800F0FD02B78013344
:10453000402B28BF002318F80320D2B2F271DBB25F
:104540002B7003E0FF2801DDFFF74CFD2B78DBB279
:104550009C42E3D0FFB20B4B1F5501220A4B1A704D
:10456000E4B2054B1C70BC22054BDA70BDE8F0814B
:10457000348004408499FF1F8899FF1F8199FF1F91
:1045800000A00640FC98FF1FF898FF1F2DE9F84F88
:104590000746284B1B6813F4806F49D0264B1B68D5
:1045A0000BB101221A7007EB010B5F453DD2DFF81A
:1045B0009890224EDFF88C80DFF890A099F80040A8
:1045C0000134402C28BF00243578EDB2A54220D11B
:1045D000BC2388F80330FEF791FC402811DC98F8E2
:1045E000043013F0800F10D033780133402B28BFF4
:1045F00000231AF80320D2B288F80720DBB2337008
:1046000003E0FF2801DDFFF7EDFC3378DBB29D42CC
:10461000E1D017F8013B0AF804300122084B1A7068
:10462000E4B289F800405F45C8D1BC22054BDA707E
:10463000BDE8F88F348004408499FF1F8199FF1FE3
:10464000F898FF1F00A006408899FF1FFC98FF1FE5
:1046500010B5064B1B7813F0FF0F06D0034CFFF785
:10466000C1FC237813F0FF0FF9D110BDF898FF1F9C
:10467000064B1B78DBB2064A1278D2B293422CBFAB
:104680003F3202F1FF32D01A704700BF8899FF1FF6
:104690008199FF1F054B1878C0B2054B1B78DBB220
:1046A000984238BF4030C01A704700BF8099FF1F42
:1046B000F998FF1F10B4184B1A78D2B2174B1B7819
:1046C000DBB29A4218D001333F2B18D81449C85C8A
:1046D000C0B2DCB211490C7012490968C9B19A42E2
:1046E00003D300E00023D31A01E04032D31A1A2B7F
:1046F0000FDC00230B700CE04FF0FF3009E0084B9B
:104700001878C0B20021054B1970064B19680029B2
:10471000E8D15DF8044B70478099FF1FF998FF1F9F
:104720004099FF1FF498FF1F094B1A78D2B2094B2A
:104730001B78DBB29A4207D00133402B28BF0023FD
:10474000054AD05CC0B270474FF0FF30704700BFE1
:104750008099FF1FF998FF1F4099FF1F0D4B1B68A1
:1047600013F4806F14D00C4BDA7802F0CB02DA70BD
:1047700040225A74DA7842F03402DA70074B1A7821
:10478000D2B2074B1A70074B1B680BB100221A708C
:10479000704700BF3480044000A00640F998FF1F16
:1047A0008099FF1FF498FF1F70B43D4B1B7913F0E5
:1047B000300F33D072B63A4B9B7D03F0FF022BB91A
:1047C000374BDA7940225A7462B627E062B6354B2D
:1047D0001978C9B2344B1C78E4B2314D334EEB79C1
:1047E000D8B24B1C402B28BF0023A3421CBFF0545F
:1047F0001946531E13F0FF02F1D1CAB2294B1A70A9
:104800002B4B1B6853B1A1422EBFC4EB0101C4F175
:10481000400409192729C4BF01221A70204BDA78F5
:10482000D2B212F0800F27D01B7913F0800F23D063
:10483000204B1C78E4B2204B1B78DBB29C4210D09A
:1048400017491E4D01E0A3420BD00133402B28BF76
:1048500000230879E85CC0B2C871087DC0B207289F
:10486000F1D9DBB214490B700D4B1B7913F0800F9B
:1048700002D07C210A4BD97012F0400F0ED0084BA9
:104880001B7913F0400F09D000220D4B1A700D4B0D
:104890001B6803B11A703C22014BDA7070BC704780
:1048A00000A006408099FF1FF998FF1F4099FF1F45
:1048B000F498FF1F8899FF1F8199FF1FFC98FF1F25
:1048C000F898FF1F8499FF1F254B1A6842F4006275
:1048D0001A600023234A1370234A1370234A13706B
:1048E000234A1370234A1370234B1B78092B02D0E1
:1048F0001A2B05D008E040F21332204B1A6003E077
:1049000040F213321E4B1A601E4B1B780A2B02D04A
:104910001F2B05D008E04FF451721B4B1A6003E0C7
:104920004FF45172194B1A60C0F34432184B1A708D
:10493000C0F347125A7000F01F00987204229A7058
:104940000221D9745A7588221A743C22DA704022E6
:10495000104B1A704FF40042A3F22B331A607047C9
:1049600034800440FC99FF1F9199FF1F049AFF1F98
:10497000FD99FF1F9099FF1F9589FF1F0CB0044000
:1049800004D004409689FF1F10B0044000D00440BA
:1049900000B006402FE400E0164B9B7803F0EC03D8
:1049A00000F00302134310F0040F18BF43F010038C
:1049B000104A937000F00F03042B04D11346927930
:1049C00042F040029A710B4B5A7902F0EF0210F05C
:1049D000100F18BF42F01002064B5A719B7903F07A
:1049E000EF0310F0200F18BF43F01003014A93713A
:1049F000704700BF00B0064010B5224B1B6813F48F
:104A0000006F3ED0204B1B7813F0FF0F06D01E4CDA
:104A1000FFF7E8FA237813F0FF0FF9D14FF40042C3
:104A20001A4B1A6000221A4BDA701A4B1B78092BAA
:104A300002D01A2B05D008E040F20312164B1A6080
:104A400003E040F20312154B1A60154B1B7803F07C
:104A50007F030A2B02D01F2B05D008E040F203127F
:104A6000104B1A6003E040F203120F4B1A60002350
:104A70000E4A13700E4A13700E4B1B680BB10122C5
:104A80001A7010BD348004409099FF1F84E100E04B
:104A900000B006409589FF1F0CB0044004D00440CC
:104AA0009689FF1F10B0044000D00440FC99FF1FFE
:104AB0009199FF1F8C99FF1F10B50446094A13787E
:104AC00013F0FF0FFBD120460121FEF76DFA2046BF
:104AD0000021FEF745FA044B53F83420034B1A60CB
:104AE00010BD00BF9099FF1FACAE0000009AFF1FE1
:104AF00010B40C4609B140F08000184B1B78984266
:104B000028D0174A126812F4006F21D003F07F03F7
:104B10000A2B02D01F2B04D006E00022114B1A6092
:104B200002E00022104B1A60002C0CBF44226022CD
:104B300000F07F030A2B02D01F2B05D008E042F4BF
:104B40004072084B1A6003E042F44072064B1A6050
:104B5000024B18705DF8044B704700BF9689FF1F29
:104B60003480044010B0044000D00440124B1B7845
:104B7000984220D0114A126812F4006F19D0092B04
:104B800002D01A2B04D006E000220D4B1A6002E07E
:104B900000220C4B1A60092802D01A2805D008E020
:104BA00040F21332064B1A6003E040F21332054B19
:104BB0001A60014B187070479589FF1F34800440BC
:104BC0000CB0044004D0044010B50D4B1B6813F426
:104BD000006F12D021280CD80A4C0B4B53F8303000
:104BE00023600121FEF7E0F9236800221A700120FA
:104BF00010BD0020034B186010BD002010BD00BF89
:104C0000348004408C99FF1FACAE00000D4B1B6834
:104C100013F4006F13D017280AD140F202320A4B66
:104C20001A600A4B5A7B42F001025A730120704706
:104C3000064B5A7B02F0FE025A7300207047002098
:104C4000704700BF3480044008B0044000B0064004
:104C50002DE9F04107461F4B1B6813F4006F37D056
:104C60001D4B1B680BB101221A701C4B1C780134C0
:104C7000282C28BF00241A4D1A4EDFF86C8017E04C
:104C8000FEF73CF940280FDC337913F0800F0FD08A
:104C90002B780133282B28BF002318F80320D2B229
:104CA000F271DBB22B7003E0FF2801DDFFF79AF908
:104CB0002B78DBB29C42E3D0FFB20B4B1F55012295
:104CC0000A4B1A70E4B2054B1C70BC22054BDA701B
:104CD000BDE8F08134800440009AFF1F049AFF1F52
:104CE000FD99FF1F00B006409499FF1F9099FF1F88
:104CF0002DE9F84F0746284B1B6813F4006F49D085
:104D0000264B1B680BB101221A7007EB010B5F45A4
:104D10003DD2DFF89890224EDFF88C80DFF890A02B
:104D200099F800400134282C28BF00243578EDB2D2
:104D3000A54220D1BC2388F80330FEF7DFF84028D5
:104D400011DC98F8043013F0800F10D03378013361
:104D5000282B28BF00231AF80320D2B288F8072096
:104D6000DBB2337003E0FF2801DDFFF73BF9337856
:104D7000DBB29D42E1D017F8013B0AF80430012272
:104D8000084B1A70E4B289F800405F45C8D1BC22D4
:104D9000054BDA70BDE8F88F34800440009AFF1F9D
:104DA000FD99FF1F9099FF1F00B00640049AFF1F56
:104DB0009499FF1F10B5064B1B7813F0FF0F06D018
:104DC000034CFFF70FF9237813F0FF0FF9D110BD53
:104DD0009099FF1F064B1B78DBB2064A1278D2B2BD
:104DE00093422CBF273202F1FF32D01A704700BF26
:104DF000049AFF1FFD99FF1F054B1878C0B2054BA1
:104E00001B78DBB2984238BF4030C01A704700BFF1
:104E1000FC99FF1F9199FF1F10B4184B1A78D2B25A
:104E2000174B1B78DBB29A4218D001333F2B18D8AE
:104E30001449C85CC0B2DCB211490C70124909684F
:104E4000C9B19A4203D300E00023D31A01E04032F3
:104E5000D31A1A2B0FDC00230B700CE04FF0FF303D
:104E600009E0084B1878C0B20021054B1970064BB9
:104E700019680029E8D15DF8044B7047FC99FF1FC1
:104E80009199FF1FBC99FF1F8C99FF1F094B1A783E
:104E9000D2B2094B1B78DBB29A4207D00133402BC8
:104EA00028BF0023054AD05CC0B270474FF0FF30E6
:104EB000704700BFFC99FF1F9199FF1FBC99FF1F0E
:104EC0000D4B1B6813F4006F14D00C4BDA7802F012
:104ED000CB02DA7040225A74DA7842F03402DA7087
:104EE000074B1A78D2B2074B1A70074B1B680BB1ED
:104EF00000221A70704700BF3480044000B00640A2
:104F00009199FF1FFC99FF1F8C99FF1F70B43D4BB7
:104F10001B7913F0300F33D072B63A4B9B7D03F000
:104F2000FF022BB9374BDA7940225A7462B627E078
:104F300062B6354B1978C9B2344B1C78E4B2314DA6
:104F4000334EEB79D8B24B1C402B28BF0023A34231
:104F50001CBFF0541946531E13F0FF02F1D1CAB220
:104F6000294B1A702B4B1B6853B1A1422EBFC4EBC7
:104F70000101C4F1400409192729C4BF01221A7094
:104F8000204BDA78D2B212F0800F27D01B7913F0C1
:104F9000800F23D0204B1C78E4B2204B1B78DBB26F
:104FA0009C4210D017491E4D01E0A3420BD00133A3
:104FB000282B28BF00230879E85CC0B2C871087D9F
:104FC000C0B20728F1D9DBB214490B700D4B1B7925
:104FD00013F0800F02D07C210A4BD97012F0400FE1
:104FE0000ED0084B1B7913F0400F09D000220D4B57
:104FF0001A700D4B1B6803B11A703C22014BDA701A
:1050000070BC704700B00640FC99FF1F9199FF1FCC
:10501000BC99FF1F8C99FF1F049AFF1FFD99FF1F6A
:105020009499FF1F9099FF1F009AFF1F174B1A6852
:1050300042F480521A600023154A1370154A137007
:10504000154A1370154A1370154A137040F2133144
:10505000144A11604FF4517104321160C0F34431AD
:10506000114A1170C0F34711517000F01F00907287
:10507000937013742C23D37040220C4B1A704FF48E
:105080000032A3F22D331A60704700BF3480044011
:10509000789AFF1F0D9AFF1F809AFF1F799AFF1FB2
:1050A0000C9AFF1F08C0044000C0064031E400E035
:1050B000164B9B7803F0EC0300F00302134310F04F
:1050C000040F18BF43F01003104A937000F00F0351
:1050D000042B04D11346927942F040029A710B4B93
:1050E0005A7902F0EF0210F0100F18BF42F01002D0
:1050F000064B5A719B7903F0EF0310F0200F18BF95
:1051000043F01003014A9371704700BF00C006408E
:1051100010B5144B1B6813F4805F21D0124B1B7821
:1051200013F0FF0F06D0104CFEF75CFF237813F04E
:10513000FF0FF9D14FF400320C4B1A6000230C4AD8
:10514000D37040F203120B490A6004310A600A4A24
:1051500013700A4A13700A4B1B680BB101221A70B4
:1051600010BD00BF348004400C9AFF1F84E100E0B2
:1051700000C0064008C00440789AFF1F0D9AFF1F28
:10518000089AFF1F10B50446094A137813F0FF0F61
:10519000FBD120460121FDF707FF20460021FDF746
:1051A000DFFE044B53F83420034B1A6010BD00BFE0
:1051B0000C9AFF1FACAE00007C9AFF1F10B40C4687
:1051C00009B140F08000104B1B78984219D00F4A6B
:1051D000126812F4805F12D003F07F03082B02D113
:1051E00000220B4B1A60002C0CBF4422602200F0FE
:1051F0007F03082B03D142F44072054B1A60024B27
:1052000018705DF8044B70479789FF1F3480044085
:105210000CC00440704700BF10B50D4B1B6813F461
:10522000805F12D021280CD80A4C0B4B53F8303039
:1052300023600121FDF7B8FE236800221A700120C7
:1052400010BD0020034B186010BD002010BD00BF32
:1052500034800440089AFF1FACAE00000D4B1B6861
:1052600013F4805F13D00E280AD140F202320A4BA9
:105270001A600A4B5A7B42F001025A7301207047B0
:10528000064B5A7B02F0FE025A7300207047002042
:10529000704700BF3480044004C0044000C0064092
:1052A0002DE9F04107461F4B1B6813F4805F37D090
:1052B0001D4B1B680BB101221A701C4B1C7801346A
:1052C000282C28BF00241A4D1A4EDFF86C8017E0F6
:1052D000FDF714FE40280FDC337913F0800F0FD058
:1052E0002B780133282B28BF002318F80320D2B2D3
:1052F000F271DBB22B7003E0FF2801DDFEF772FED6
:105300002B78DBB29C42E3D0FFB20B4B1F5501223E
:105310000A4B1A70E4B2054B1C70AC22054BDA70D4
:10532000BDE8F081348004407C9AFF1F809AFF1F03
:10533000799AFF1F00C00640109AFF1F0C9AFF1FAA
:1053400038B505460C4629B115F8010BFFF7A8FF43
:10535000013CF9D138BD00BF10B5064B1B7813F0E6
:10536000FF0F06D0034CFEF73DFE237813F0FF0F2E
:10537000F9D110BD0C9AFF1F064B1B78DBB2064A11
:105380001278D2B293422CBF273202F1FF32D01AE8
:10539000704700BF809AFF1F799AFF1F054B18784E
:1053A000C0B2054B1B78DBB2984238BF4030C01A00
:1053B000704700BF789AFF1F0D9AFF1F10B4184B5B
:1053C0001A78D2B2174B1B78DBB29A4218D001334D
:1053D0003F2B18D81449C85CC0B2DCB211490C701C
:1053E00012490968C9B19A4203D300E00023D31AD5
:1053F00001E04032D31A1A2B0FDC00230B700CE0B3
:105400004FF0FF3009E0084B1878C0B20021054B7F
:105410001970064B19680029E8D15DF8044B7047F4
:10542000789AFF1F0D9AFF1F389AFF1F089AFF1FD7
:10543000094B1A78D2B2094B1B78DBB29A4207D0DB
:105440000133402B28BF0023054AD05CC0B270470F
:105450004FF0FF30704700BF789AFF1F0D9AFF1F73
:10546000389AFF1F054B1A78D2B2054B1A70054BBC
:105470001B680BB100221A70704700BF0D9AFF1F06
:10548000789AFF1F089AFF1F2F4B1B7913F0200FEC
:1054900023D02D4BDB79D9B22C4B1B780133402B19
:1054A00028BF00232A4A1278D2B29A4204D0294A4D
:1054B000D154D9B2254A1170274A116869B1274AD7
:1054C0001278D2B293422EBFC2EB0303C2F1400264
:1054D0009B18272BC4BF01230B701B4BDB78DBB25F
:1054E00013F0800F1CD0184A127912F0800F17D0D9
:1054F0001B4A1178C9B2194A1278D2B2914203D12B
:105500006C21114AD1700BE00132282A28BF0022F9
:105510001449885CC0B20C49C871D2B20F490A70F4
:1055200013F0400F0ED0084B1B7913F0400F09D039
:1055300000220D4B1A700D4B1B6803B11A702C2200
:10554000014BDA70704700BF00C00640789AFF1F19
:105550000D9AFF1F389AFF1F089AFF1F799AFF1FA5
:10556000809AFF1F109AFF1F0C9AFF1F7C9AFF1F43
:1055700000B585B072B61B4B70221A7041211A4AD1
:1055800011700F21013A117080221A701A46137897
:1055900013F0800FFBD0154B186862B6144B98427D
:1055A0009CBF00EB8000400001A90A22FEF7D6FD57
:1055B0009DF804307BB908E001A9595C31B19180B4
:1055C000023201330A2BF7D100E0002301335B00E4
:1055D000084A137003E0074A53800123ECE705B043
:1055E0005DF804FB00000240070002400800024092
:1055F0007F969800248AFF1F08B503681B68C9B20C
:10560000984708BD08B503681B68C9B2984708BD2C
:1056100008B503681B68C9B2984708BD08B5036898
:105620001B68C9B2984708BD08B54B0803F137603D
:1056300000F5D830B0FBF1F0FEF7B2FD08BD00BFB9
:1056400010B514464B0803F1376000F5D830B0FBB5
:10565000F1F0FEF7A5FD2046FEF70AFE10BD00BFE3
:1056600008B5FEF735FE08BD08B50846FEF76AFE28
:1056700008BD00BF08B50846FEF7BEFE08BD00BF66
:1056800008B508461146FEF779FE08BD08B508467C
:10569000FEF7DEFE003018BF012008BD08B5084641
:1056A000FEF7F8FE003018BF012008BD08B5FEF770
:1056B000F1FF08BD08B5FFF737F808BD08B5FEF7DC
:1056C000F9FF08BD08B5FEF7C3FF08BD08B5FFF731
:1056D00045F808BD08B5FEF7CBFF08BD08B508467C
:1056E000FEF704FF012008BD08B50846FEF7FEFEE0
:1056F000012008BD10B5144608461146FEF746FFC6
:10570000204610BD38B50D46084601F093FE04460C
:1057100028462146FEF73AFF204638BD704700BFB5
:10572000044B00221A714FF47A7199601A73024A7D
:105730001A607047849AFF1F20B0000008B5036804
:105740001B68C9B2984708BD08B503681B68C9B291
:10575000984708BD08B503681B68C9B2984708BDDB
:1057600008B503681B68C9B2984708BD08B54B085F
:1057700003F1376000F5D830B0FBF1F0FFF7A4F883
:1057800008BD00BF10B514464B0803F1376000F5A3
:10579000D830B0FBF1F0FFF797F82046FFF7FCF8A0
:1057A00010BD00BF08B5FFF727F908BD08B50846CA
:1057B000FFF782F908BD00BF08B50846FFF7D6F924
:1057C00008BD00BF08B508461146FFF791F908BDAE
:1057D00008B50846FFF7F8F9003018BF012008BDEA
:1057E00008B50846FFF712FA003018BF012008BDBF
:1057F00008B5FFF701FB08BD08B5FFF747FB08BD7B
:1058000008B5FFF709FB08BD08B5FFF7D3FA08BDD7
:1058100008B5FFF755FB08BD08B5FFF7DBFA08BD73
:1058200008B50846FFF714FA012008BD08B5084678
:10583000FFF70EFA012008BD10B5144608461146C0
:10584000FFF756FA204610BD38B50D46084601F060
:10585000F1FD044628462146FFF74AFA204638BDA6
:10586000704700BF044B00221A714FF47A7199609F
:105870001A73024A1A607047949AFF1F80B00000A2
:1058800008B503681B68C9B2984708BD08B5036826
:105890001B68C9B2984708BD08B503681B68C9B240
:1058A000984708BD08B503681B68C9B2984708BD8A
:1058B00008B54B0803F1B76000F55840B0FBF1F0B4
:1058C000FFF7B4FB08BD00BF10B514464B0803F149
:1058D000B76000F55840B0FBF1F0FFF7A7FB20469A
:1058E000FFF7E6FB10BD00BF08B5FFF711FC08BDD0
:1058F00008B50846FFF746FC08BD00BF08B50846D6
:10590000FFF788FC08BD00BF08B508461146FFF741
:1059100055FC08BD08B50846FFF77EFC003018BFEF
:10592000012008BD08B50846FFF798FC003018BFF5
:10593000012008BD08B5FFF731FD08BD08B5FFF728
:1059400077FD08BD08B5FFF739FD08BD08B5FFF7BD
:1059500003FD08BD08B5FFF785FD08BD08B5FFF7D5
:105960000BFD08BD08B50846FFF79AFC012008BDED
:1059700008B50846FFF794FC012008BD10B5144691
:1059800008461146FFF7DCFC204610BD38B50D4631
:10599000084601F04FFD044628462146FFF7D0FC9B
:1059A000204638BD704700BF044B00221A714FF4E7
:1059B0007A7199601A73024A1A607047A49AFF1F9D
:1059C000E0B0000008B5FEF781F908BD08B5FEF7A4
:1059D00031F908BD08B5FEF759F908BD08B5FEF75D
:1059E0002BFA08BD08B5FEF77FF908BD08B50846D3
:1059F000FEF716FA08BD00BF08B508461146FEF7C7
:105A00008FF908BD704700BF044B00221A714FF494
:105A10007A7199601A73024A1A607047B49AFF1F2C
:105A200040B1000031F0004310B408D00F4AA3F594
:105A3000801494420AD804205DF8044B7047002873
:105A40000CBF022003205DF8044B7047B3F5801FA4
:105A500001D20320F7E7064A934201D00020F2E783
:105A6000D0F1010038BF0020EDE700BFFFFFDF7F6E
:105A70000000F07F81F0004102E000BF83F00043AE
:105A800030B54FEA41044FEA430594EA050F08BFD9
:105A900090EA020F1FBF54EA000C55EA020C7FEA9D
:105AA000645C7FEA655C00F0E2804FEA5454D4EB1A
:105AB0005555B8BF6D420CDD2C4480EA020281EAE4
:105AC000030382EA000083EA010180EA020281EA1C
:105AD0000303362D88BF30BD11F0004F4FEA01316E
